:020000040800F2
:10000000A0070020CD010008D5050008FD04000868
:10001000D1050008FD020008B10D00080000000035
:10002000000000000000000000000000CD0A0008F1
:10003000690300080000000087060008B90B0008EB
:10004000E7010008E7010008E7010008E7010008F0
:10005000E7010008E7010008E7010008E7010008E0
:10006000E7010008E7010008E7010008E7010008D0
:10007000E7010008E701000801030008E7010008A4
:10008000E7010008E7010008E7010008E7010008B0
:10009000E7010008E7010008E7010008E7010008A0
:1000A000E7010008E7010008E7010008E701000890
:1000B000E7010008E7010008E7010008E701000880
:1000C000E7010008E7010008E7010008E701000870
:1000D000E7010008E7010008E7010008E701000860
:1000E000E7010008E7010008E7010008E701000850
:1000F000E7010008E7010008E7010008E701000840
:10010000E7010008E7010008E7010008E70100082F
:10011000E7010008E7010008E7010008E70100081F
:10012000E7010008E7010008E7010008E70100080F
:1001300000F002F800F03AF80AA090E8000C8244BF
:100140008344AAF10107DA4501D100F02FF8AFF29C
:10015000090EBAE80F0013F0010F18BFFB1A43F0A5
:1001600001031847880E0000A80E0000103A24BFB3
:1001700078C878C1FAD8520724BF30C830C144BF0C
:1001800004680C607047000000230024002500264E
:10019000103A28BF78C1FBD8520728BF30C148BFEA
:1001A0000B6070471FB51FBD10B510BD00F031F8D2
:1001B0001146FFF7F7FF00F0FDFD00F04FF803B424
:1001C000FFF7F2FF03BC00F057F800000948804732
:1001D00009480047FEE7FEE7FEE7FEE7FEE7FEE729
:1001E000FEE7FEE7FEE7FEE704480549054A064B41
:1001F00070470000390C000831010008A001002000
:10020000A0070020A0030020A00300207047704733
:100210007047754600F02CF8AE4605006946534617
:1002200020F00700854618B020B5FFF7DDFFBDE8D8
:1002300020404FF000064FF000074FF000084FF04D
:10024000000B21F00701AC46ACE8C009ACE8C009DE
:10025000ACE8C009ACE8C0098D46704710B504464B
:10026000AFF300802046BDE81040FFF7A8BF0000B4
:10027000004870473C01002001491820ABBEFEE752
:10028000260002007047000010B507480088401C97
:100290000549088008460088142803DB00200880F0
:1002A00000F008FD10BD00000000002070B50446FD
:1002B0000025204600F0F4FB05460F4830F82400E6
:1002C000684028400C4901EB840148800A4820F826
:1002D0002450002600EB8400807800F0010008B173
:1002E000012606E0044810F8240000F0010000B1E7
:1002F0000026304670BD00003A00002000BFFEE737
:1003000010B500F033F810BD00F0805111B1034971
:10031000086001E0024948607047000004040240A0
:100320000000024021B1026842F00102026004E0D4
:1003300002684FF6FE731A400260704701460020C3
:10034000002201F0805313B1054B1A6801E0054B00
:100350001A6802EA01030BB1012000E00020704797
:1003600000040240000002407047000010B54FF446
:100370000050FFF7E3FF012802D14003FFF7C4FF5D
:1003800000210248FFF7CEFF10BD000044000240EC
:1003900010B500F081FC012801D100F0F3F810BD88
:1003A0000549096821F01001034A116011460968E6
:1003B0000143116070470000002002400146002008
:1003C000034A106800F038000843106070470000CE
:1003D000002002402DE9F0410246002500260020C1
:1003E00000230024002791F803C00CF00F0591F8BA
:1003F00003C00CF0100CBCF1000F03D091F802C048
:100400004CEA050591F800C0BCF1000F31D014682A
:1004100000202BE04FF0010C0CFA00F3B1F800C003
:100420000CEA03069E4220D183004FF00F0C0CFA19
:1004300003F7BC4305FA03FC4CEA040491F803C03B
:10044000BCF1280F06D14FF0010C0CFA00FCC2F8E9
:1004500014C00AE091F803C0BCF1480F05D14FF079
:10046000010C0CFA00FCC2F810C0401C0828D1D3C3
:100470001460B1F800C0BCF1FF0F34DD54680020F7
:100480002EE000F1080C4FF0010808FA0CF3B1F867
:1004900000C00CEA03069E4221D183004FF00F0CEE
:1004A0000CFA03F7BC4305FA03FC4CEA040491F888
:1004B00003C0BCF1280F05D100F1080C08FA0CF8B4
:1004C000C2F8148091F803C0BCF1480F07D100F1C5
:1004D000080C4FF0010808FA0CF8C2F81080401C14
:1004E0000828CED35460BDE8F0810246002093680E
:1004F0000B400BB1012000E00020704700BFFEE779
:1005000038B500240121042000F03EF90121082023
:1005100000F03AF90121102000F036F901212020E5
:1005200000F032F90121402000F02EF904208DF86E
:10053000030002208DF8020000BF0CE0074800EB2A
:10054000C4008088ADF80000044951F834006946C1
:10055000FFF740FF641C402CF0DB38BDEC0D0008B9
:10056000002000BF09E00021054A02EB8002518013
:10057000034A22F82010411C88B24028F3DB704760
:100580003A00002070B50024002600BF0EE0E0B263
:10059000FFF78CFE05463DB1701C86B2052E03DACE
:1005A0002146284600F070F8601C84B2402CEEDB37
:1005B00070BD0000054800214160816081810020FC
:1005C000024948700870C870887070472C0000207D
:1005D00000BFFEE77047000070B5002100230F2226
:1005E000C47804B3154C246804F4E064C4F5E064F2
:1005F000210AC1F10403CA40447804FA03F1847863
:100600001440214309010E4C0678A155047804F0EA
:100610001F050124AC4005786D11AD0005F1E02502
:10062000C5F8004109E0047804F01F050124AC403E
:10063000044D0678761145F8264070BD0CED00E0BB
:1006400000E400E080E100E002490143024A116059
:10065000704700000000FA050CED00E008B54FF40B
:10066000A060FFF7F1FF0E208DF8000000208DF84C
:10067000010003208DF8020001208DF80300684678
:10068000FFF7AAFF08BD704730B502460020154BA2
:10069000DB78052B09D1134B5B78124C2478A342ED
:1006A00003D101230F4CA37030BD0E4B5C781B1D92
:1006B00003EB44035A700B4B5D781B1D03F81510B8
:1006C0001B1F5B785B1C052493FBF4F504FB1533BF
:1006D000044C63702346DB785B1CE370012000BF91
:1006E000E2E700002C00002030B585B0054601246B
:1006F000012144F2050000F047F818208DF813009E
:100700006002ADF8100003208DF8120004A914480F
:10071000FFF760FE48208DF81300A002ADF810002E
:1007200003208DF8120004A90D48FFF753FE009531
:100730000020ADF80800ADF8040074B1ADF8060073
:10074000ADF80C000C20ADF80A006946054800F031
:10075000C3FA0121034800F0B3FA204605B030BDCA
:10076000000801400038014029B1064A526902439D
:10077000044B5A6104E0034A52698243014B5A61B7
:10078000704700000010024029B1064A92690243F6
:10079000044B9A6104E0034A92698243014B9A61D7
:1007A000704700000010024010B500F037F84FF419
:1007B000803000F0F5F800F057F901282DD1102015
:1007C000FFF7EEFD0220FFF7F9FD002000F046F9EB
:1007D000012140F25750FFF7C7FF002000F0D4F886
:1007E000002000F003F9002000F00CF94FF4E011B4
:1007F0004FF4803000F018F9012000F00FF900BF2D
:10080000392000F09BF80028FAD0022000F01AF9F5
:1008100000BF00F0B1F80828FBD110BD0F480068F8
:1008200040F001000D490860084640680C49084046
:100830000A494860084600680A49084007490860B4
:100840000846006820F4802008600846406820F4CC
:10085000FE0048604FF41F0088607047001002409F
:100860000000FFF8FFFFF6FE30B500210022002453
:1008700000232D4D6D6805F00C0121B1042905D030
:10088000082923D105E0294D056022E0274D0560A8
:100890001FE0254D6D6805F47012234D6D6805F459
:1008A0008034022505EB92421CB9214D5543056069
:1008B0000BE01D4D6D6805F400351DB11C4D554311
:1008C000056002E0194D5543056002E0174D0560D3
:1008D00000BF00BF144D6D6805F0F0010909154D0A
:1008E0006B5C0568DD4045600F4D6D6805F4E061A7
:1008F000090A104D6B5C4568DD4085600A4D6D68E6
:1009000005F46051C90A0B4D6B5C4568DD40C5605C
:10091000054D6D6805F44041890B074D6B5CC5685A
:10092000B5FBF3F5056130BD0010024000127A00FE
:1009300000093D00030000201300002010B501460F
:100940000022002300204A11012A02D1094C236809
:1009500006E0022A02D1074C236A01E0054C636AD3
:1009600001F01F02012494401C400CB1012000E062
:10097000002010BD001002400248406800F00C004A
:10098000704700000010024001460020034A5068F2
:1009900020F0F00008435060704700000010024053
:1009A0001149096821F480310F4A11601146096824
:1009B00021F480211160B0F5803F03D0B0F5802F85
:1009C0000ED106E00849096841F48031064A1160F9
:1009D00007E00549096841F4A021034A116000E0DD
:1009E00000BF00BF70470000001002400146002019
:1009F000034A506820F4E0600843506070470000EC
:100A00000010024001460020034A506820F4605064
:100A100040EAC1005060704700100240014908667A
:100A2000704700000000424202460020044B586814
:100A300020F47C1042EA01031843014B58607047D0
:100A40000010024001460020034A506820F00300D5
:100A500008435060704700000010024001490860E0
:100A600070470000D800424238B5002000900024B2
:100A7000002500BF3120FFF761FF05460098401CAC
:100A800000900098B0F5A06F01D0002DF2D0312079
:100A9000FFF754FF08B1012400E00024204638BDD0
:100AA00070B5044601250026074A02EBC40291886E
:100AB000054A52F83400FFF718FD064606B900E073
:100AC0000025284670BD0000EC0D0008704710B5E9
:100AD00000F002F810BD00000CB50020019000905D
:100AE0003348006840F480303149086000BF304826
:100AF000006800F4003000900198401C01900098BC
:100B000018B90198B0F5A06FF1D12948006800F438
:100B1000003010B10120009001E00020009000980A
:100B2000012843D12348006840F0100021490860A3
:100B30000846006820F0030008600846006840F09E
:100B4000020008601A484068194948600846406831
:100B500048600846406840F4806048600846406845
:100B600020F47C1048600846406840F4E810486073
:100B70000846006840F08070086000BF0C480068BC
:100B800000F000700028F9D00948406820F0030008
:100B9000074948600846406840F00200486000BFCE
:100BA0000348406800F00C000828F9D10CBD000093
:100BB000001002400020024010B5FFF765FB10BD99
:100BC00030B51A4800684FF47A72B0FBF2F1B1F117
:100BD000807F01D301201DE021F07F40401E4FF0B7
:100BE000E022506150170F22002807DA13071D0E6C
:100BF0000F4B00F00F04241F1D5503E013071C0EBC
:100C00000C4B1C5400BF00204FF0E02290610720E5
:100C10001061002008B100BFFEE74FF0E02000693E
:100C200020F001004FF0E021086130BD18000020E5
:100C300018ED00E000E400E010B51348006840F053
:100C400001001149086008464068104908400E49F3
:100C50004860084600680E4908400B49086008468D
:100C6000006820F4802008600846406820F4FE00F8
:100C700048604FF41F008860FFF729FF4FF00060C5
:100C80000449086010BD0000001002400000FFF899
:100C9000FFFFF6FE08ED00E005480078012804D1CA
:100CA000002003490870012070470020FCE7000085
:100CB0000200002001200149087070470200002056
:100CC00021B1828942F40052828104E082894DF68A
:100CD000FF731A40828170472DE9F04786B00546C0
:100CE0000E460024A24600BFA1460027B08900B1ED
:100CF00000BF2F462C8A4CF6FF700440F088044356
:100D00002C82AC894EF6F3100440B0883189084338
:100D1000718908430443AC81AC8A4FF6FF4004401C
:100D2000B0890443AC8201A8FFF79EFD1F488742AB
:100D300002D1DDF810A001E0DDF80CA0A88900F4D4
:100D4000004040B10AEBCA0000EB0A1031684900CC
:100D5000B0FBF1F807E00AEBCA0000EB0A103168BB
:100D60008900B0FBF1F86420B8FBF0F00401200921
:100D7000642101FB1089A88900F4004040B13220B1
:100D800000EBC900B0FBF1F000F00700044308E0FD
:100D9000322000EB09106421B0FBF1F000F00F00ED
:100DA00004432C8106B0BDE8F08700000038014004
:100DB00000BFFEE7FFF752FCFFF7F6FCFFF7A0FBD2
:100DC000FFF7CEFBFFF7F6FB4FF4E130FFF78CFCAB
:100DD000FFF7F6FE4FF0E020006940F001004FF011
:100DE000E021086101E0FFF7D3FAFCE700140140BD
:100DF00000200000001401400040000000140140E9
:100E00000080000000100140400000000010014080
:100E100080000000001001400001000000100140AF
:100E20000002000000080140000100000010014025
:100E30000004000000100140000800000010014004
:100E400000100000001401400100000000140140E7
:100E500002000000001401400400000000140140E2
:100E600008000000001401401000000000140140C0
:100E70002000000000140140400000000014014068
:100E800080000000000C014020000000000C014028
:100E900040000000000C014080000000000C0140F8
:100EA00000010000000C0140000200000018014099
:100EB000010000000018014002000000001801407D
:100EC0000400000000180140080000000018014064
:100ED0001000000000180140200000000018014030
:100EE0004000000000100140002000000008014008
:100EF000010000000008014002000000000801405D
:100F00000400000000080140080000000008014043
:100F1000100000000008014020000000000801400F
:100F20004000000000080140800000000010014067
:100F3000100000000010014020000000000C0140E3
:100F400001000000000C01400200000000180140F8
:100F5000800000000018014000010000001801405E
:100F600000020000001801400004000000180140C9
:100F700000080000001801400010000000180140A7
:100F8000002000000018014000400000001801404F
:100F900000800000000C014000040000000C014033
:100FA00000080000000C014000100000000C01408F
:100FB00000200000000C014000400000000C014037
:100FC00000800000001401400001000000140140F6
:100FD0000002000000140140000400000014014061
:100FE0000008000000140140001000000C10000870
:100FF000000000202C0000006C01000838100008E0
:101000002C00002074070000880100080000000088
:10101000000000010203040102030406070809029C
:101020000406080000A24A040000000000000000BE
:08103000010203040607080990
:0400000508000131BD
:00000001FF
